{
  "_format": "hh-sol-artifact-1",
  "contractName": "MyToken",
  "sourceName": "contracts/MyToken.sol",
  "abi": [
    {
      "inputs": [],
      "stateMutability": "nonpayable",
      "type": "constructor"
    },
    {
      "anonymous": false,
      "inputs": [
        {
          "indexed": true,
          "internalType": "address",
          "name": "owner",
          "type": "address"
        },
        {
          "indexed": true,
          "internalType": "address",
          "name": "spender",
          "type": "address"
        },
        {
          "indexed": false,
          "internalType": "uint256",
          "name": "value",
          "type": "uint256"
        }
      ],
      "name": "Approval",
      "type": "event"
    },
    {
      "anonymous": false,
      "inputs": [
        {
          "indexed": true,
          "internalType": "address",
          "name": "from",
          "type": "address"
        },
        {
          "indexed": true,
          "internalType": "address",
          "name": "to",
          "type": "address"
        },
        {
          "indexed": false,
          "internalType": "uint256",
          "name": "value",
          "type": "uint256"
        }
      ],
      "name": "Transfer",
      "type": "event"
    },
    {
      "inputs": [],
      "name": "Symbol",
      "outputs": [
        {
          "internalType": "string",
          "name": "",
          "type": "string"
        }
      ],
      "stateMutability": "view",
      "type": "function"
    },
    {
      "inputs": [],
      "name": "TokenName",
      "outputs": [
        {
          "internalType": "string",
          "name": "",
          "type": "string"
        }
      ],
      "stateMutability": "view",
      "type": "function"
    },
    {
      "inputs": [],
      "name": "_totalSupply",
      "outputs": [
        {
          "internalType": "uint256",
          "name": "",
          "type": "uint256"
        }
      ],
      "stateMutability": "view",
      "type": "function"
    },
    {
      "inputs": [
        {
          "internalType": "address",
          "name": "owner",
          "type": "address"
        },
        {
          "internalType": "address",
          "name": "spender",
          "type": "address"
        }
      ],
      "name": "allowance",
      "outputs": [
        {
          "internalType": "uint256",
          "name": "remaining",
          "type": "uint256"
        }
      ],
      "stateMutability": "view",
      "type": "function"
    },
    {
      "inputs": [
        {
          "internalType": "address",
          "name": "spender",
          "type": "address"
        },
        {
          "internalType": "uint256",
          "name": "amount",
          "type": "uint256"
        }
      ],
      "name": "approve",
      "outputs": [
        {
          "internalType": "bool",
          "name": "success",
          "type": "bool"
        }
      ],
      "stateMutability": "nonpayable",
      "type": "function"
    },
    {
      "inputs": [
        {
          "internalType": "address",
          "name": "_account",
          "type": "address"
        }
      ],
      "name": "balanceOf",
      "outputs": [
        {
          "internalType": "uint256",
          "name": "balance",
          "type": "uint256"
        }
      ],
      "stateMutability": "view",
      "type": "function"
    },
    {
      "inputs": [],
      "name": "decimals",
      "outputs": [
        {
          "internalType": "uint8",
          "name": "",
          "type": "uint8"
        }
      ],
      "stateMutability": "view",
      "type": "function"
    },
    {
      "inputs": [],
      "name": "name",
      "outputs": [
        {
          "internalType": "string",
          "name": "",
          "type": "string"
        }
      ],
      "stateMutability": "view",
      "type": "function"
    },
    {
      "inputs": [],
      "name": "symbol",
      "outputs": [
        {
          "internalType": "string",
          "name": "",
          "type": "string"
        }
      ],
      "stateMutability": "view",
      "type": "function"
    },
    {
      "inputs": [],
      "name": "totalSupply",
      "outputs": [
        {
          "internalType": "uint256",
          "name": "",
          "type": "uint256"
        }
      ],
      "stateMutability": "view",
      "type": "function"
    },
    {
      "inputs": [
        {
          "internalType": "address",
          "name": "recipient",
          "type": "address"
        },
        {
          "internalType": "uint256",
          "name": "amount",
          "type": "uint256"
        }
      ],
      "name": "transfer",
      "outputs": [
        {
          "internalType": "bool",
          "name": "success",
          "type": "bool"
        }
      ],
      "stateMutability": "nonpayable",
      "type": "function"
    },
    {
      "inputs": [
        {
          "internalType": "address",
          "name": "sender",
          "type": "address"
        },
        {
          "internalType": "address",
          "name": "receiver",
          "type": "address"
        },
        {
          "internalType": "uint256",
          "name": "amount",
          "type": "uint256"
        }
      ],
      "name": "transferFrom",
      "outputs": [
        {
          "internalType": "bool",
          "name": "success",
          "type": "bool"
        }
      ],
      "stateMutability": "nonpayable",
      "type": "function"
    }
  ],
  "bytecode": "0x60806040523480156200001157600080fd5b506040518060400160405280600381526020017f4d544b00000000000000000000000000000000000000000000000000000000008152506000908162000058919062000424565b506040518060400160405280600781526020017f4d79546f6b656e00000000000000000000000000000000000000000000000000815250600190816200009f919062000424565b506012600260006101000a81548160ff021916908360ff160217905550683643aa6479860400006003819055506003546004600073346a7d29872e65c64402da0977155471494da52273ffffffffffffffffffffffffffffffffffffffff1673ffffffffffffffffffffffffffffffffffffffff1681526020019081526020016000208190555073346a7d29872e65c64402da0977155471494da52273ffffffffffffffffffffffffffffffffffffffff16600073ffffffffffffffffffffffffffffffffffffffff167fddf252ad1be2c89b69c2b068fc378daa952ba7f163c4a11628f55a4df523b3ef6003546040516200019c91906200051c565b60405180910390a362000539565b600081519050919050565b7f4e487b7100000000000000000000000000000000000000000000000000000000600052604160045260246000fd5b7f4e487b7100000000000000000000000000000000000000000000000000000000600052602260045260246000fd5b600060028204905060018216806200022c57607f821691505b602082108103620002425762000241620001e4565b5b50919050565b60008190508160005260206000209050919050565b60006020601f8301049050919050565b600082821b905092915050565b600060088302620002ac7fffffffffffffffffffffffffffffffffffffffffffffffffffffffffffffffff826200026d565b620002b886836200026d565b95508019841693508086168417925050509392505050565b6000819050919050565b6000819050919050565b600062000305620002ff620002f984620002d0565b620002da565b620002d0565b9050919050565b6000819050919050565b6200032183620002e4565b6200033962000330826200030c565b8484546200027a565b825550505050565b600090565b6200035062000341565b6200035d81848462000316565b505050565b5b8181101562000385576200037960008262000346565b60018101905062000363565b5050565b601f821115620003d4576200039e8162000248565b620003a9846200025d565b81016020851015620003b9578190505b620003d1620003c8856200025d565b83018262000362565b50505b505050565b600082821c905092915050565b6000620003f960001984600802620003d9565b1980831691505092915050565b6000620004148383620003e6565b9150826002028217905092915050565b6200042f82620001aa565b67ffffffffffffffff8111156200044b576200044a620001b5565b5b62000457825462000213565b6200046482828562000389565b600060209050601f8311600181146200049c576000841562000487578287015190505b62000493858262000406565b86555062000503565b601f198416620004ac8662000248565b60005b82811015620004d657848901518255600182019150602085019450602081019050620004af565b86831015620004f65784890151620004f2601f891682620003e6565b8355505b6001600288020188555050505b505050505050565b6200051681620002d0565b82525050565b60006020820190506200053360008301846200050b565b92915050565b610f6880620005496000396000f3fe608060405234801561001057600080fd5b50600436106100b45760003560e01c80633eaaf86b116100715780633eaaf86b1461019157806370a08231146101af57806395d89b41146101df578063a9059cbb146101fd578063b6d7855a1461022d578063dd62ed3e1461024b576100b4565b806306fdde03146100b9578063095ea7b3146100d757806318160ddd1461010757806323b872dd146101255780633045aaf314610155578063313ce56714610173575b600080fd5b6100c161027b565b6040516100ce9190610be9565b60405180910390f35b6100f160048036038101906100ec9190610ca4565b610309565b6040516100fe9190610cff565b60405180910390f35b61010f6103fb565b60405161011c9190610d29565b60405180910390f35b61013f600480360381019061013a9190610d44565b61044f565b60405161014c9190610cff565b60405180910390f35b61015d6106e5565b60405161016a9190610be9565b60405180910390f35b61017b610777565b6040516101889190610db3565b60405180910390f35b61019961078a565b6040516101a69190610d29565b60405180910390f35b6101c960048036038101906101c49190610dce565b610790565b6040516101d69190610d29565b60405180910390f35b6101e76107d9565b6040516101f49190610be9565b60405180910390f35b61021760048036038101906102129190610ca4565b610867565b6040516102249190610cff565b60405180910390f35b610235610a40565b6040516102429190610be9565b60405180910390f35b61026560048036038101906102609190610dfb565b610ad2565b6040516102729190610d29565b60405180910390f35b6001805461028890610e6a565b80601f01602080910402602001604051908101604052809291908181526020018280546102b490610e6a565b80156103015780601f106102d657610100808354040283529160200191610301565b820191906000526020600020905b8154815290600101906020018083116102e457829003601f168201915b505050505081565b600081600560003373ffffffffffffffffffffffffffffffffffffffff1673ffffffffffffffffffffffffffffffffffffffff16815260200190815260200160002060008573ffffffffffffffffffffffffffffffffffffffff1673ffffffffffffffffffffffffffffffffffffffff168152602001908152602001600020819055508273ffffffffffffffffffffffffffffffffffffffff163373ffffffffffffffffffffffffffffffffffffffff167f8c5be1e5ebec7d5bd14f71427d1e84f3dd0314c0f7b2291e5b200ac8c7c3b925846040516103e99190610d29565b60405180910390a36001905092915050565b6000600460008073ffffffffffffffffffffffffffffffffffffffff1673ffffffffffffffffffffffffffffffffffffffff1681526020019081526020016000205460035461044a9190610eca565b905090565b600081600460008673ffffffffffffffffffffffffffffffffffffffff1673ffffffffffffffffffffffffffffffffffffffff1681526020019081526020016000205461049c9190610eca565b600460008673ffffffffffffffffffffffffffffffffffffffff1673ffffffffffffffffffffffffffffffffffffffff1681526020019081526020016000208190555081600560008673ffffffffffffffffffffffffffffffffffffffff1673ffffffffffffffffffffffffffffffffffffffff16815260200190815260200160002060008573ffffffffffffffffffffffffffffffffffffffff1673ffffffffffffffffffffffffffffffffffffffff168152602001908152602001600020546105679190610eca565b600560008673ffffffffffffffffffffffffffffffffffffffff1673ffffffffffffffffffffffffffffffffffffffff16815260200190815260200160002060008573ffffffffffffffffffffffffffffffffffffffff1673ffffffffffffffffffffffffffffffffffffffff1681526020019081526020016000208190555081600460008573ffffffffffffffffffffffffffffffffffffffff1673ffffffffffffffffffffffffffffffffffffffff168152602001908152602001600020546106329190610efe565b600460008573ffffffffffffffffffffffffffffffffffffffff1673ffffffffffffffffffffffffffffffffffffffff168152602001908152602001600020819055508273ffffffffffffffffffffffffffffffffffffffff168473ffffffffffffffffffffffffffffffffffffffff167fddf252ad1be2c89b69c2b068fc378daa952ba7f163c4a11628f55a4df523b3ef846040516106d29190610d29565b60405180910390a3600190509392505050565b6060600080546106f490610e6a565b80601f016020809104026020016040519081016040528092919081815260200182805461072090610e6a565b801561076d5780601f106107425761010080835404028352916020019161076d565b820191906000526020600020905b81548152906001019060200180831161075057829003601f168201915b5050505050905090565b600260009054906101000a900460ff1681565b60035481565b6000600460008373ffffffffffffffffffffffffffffffffffffffff1673ffffffffffffffffffffffffffffffffffffffff168152602001908152602001600020549050919050565b600080546107e690610e6a565b80601f016020809104026020016040519081016040528092919081815260200182805461081290610e6a565b801561085f5780601f106108345761010080835404028352916020019161085f565b820191906000526020600020905b81548152906001019060200180831161084257829003601f168201915b505050505081565b600081600460003373ffffffffffffffffffffffffffffffffffffffff1673ffffffffffffffffffffffffffffffffffffffff1681526020019081526020016000205410156108b557600080fd5b81600460003373ffffffffffffffffffffffffffffffffffffffff1673ffffffffffffffffffffffffffffffffffffffff168152602001908152602001600020546109009190610eca565b600460003373ffffffffffffffffffffffffffffffffffffffff1673ffffffffffffffffffffffffffffffffffffffff1681526020019081526020016000208190555081600460008573ffffffffffffffffffffffffffffffffffffffff1673ffffffffffffffffffffffffffffffffffffffff1681526020019081526020016000205461098e9190610efe565b600460008573ffffffffffffffffffffffffffffffffffffffff1673ffffffffffffffffffffffffffffffffffffffff168152602001908152602001600020819055508273ffffffffffffffffffffffffffffffffffffffff163373ffffffffffffffffffffffffffffffffffffffff167fddf252ad1be2c89b69c2b068fc378daa952ba7f163c4a11628f55a4df523b3ef84604051610a2e9190610d29565b60405180910390a36001905092915050565b606060018054610a4f90610e6a565b80601f0160208091040260200160405190810160405280929190818152602001828054610a7b90610e6a565b8015610ac85780601f10610a9d57610100808354040283529160200191610ac8565b820191906000526020600020905b815481529060010190602001808311610aab57829003601f168201915b5050505050905090565b6000600560008473ffffffffffffffffffffffffffffffffffffffff1673ffffffffffffffffffffffffffffffffffffffff16815260200190815260200160002060008373ffffffffffffffffffffffffffffffffffffffff1673ffffffffffffffffffffffffffffffffffffffff16815260200190815260200160002054905092915050565b600081519050919050565b600082825260208201905092915050565b60005b83811015610b93578082015181840152602081019050610b78565b60008484015250505050565b6000601f19601f8301169050919050565b6000610bbb82610b59565b610bc58185610b64565b9350610bd5818560208601610b75565b610bde81610b9f565b840191505092915050565b60006020820190508181036000830152610c038184610bb0565b905092915050565b600080fd5b600073ffffffffffffffffffffffffffffffffffffffff82169050919050565b6000610c3b82610c10565b9050919050565b610c4b81610c30565b8114610c5657600080fd5b50565b600081359050610c6881610c42565b92915050565b6000819050919050565b610c8181610c6e565b8114610c8c57600080fd5b50565b600081359050610c9e81610c78565b92915050565b60008060408385031215610cbb57610cba610c0b565b5b6000610cc985828601610c59565b9250506020610cda85828601610c8f565b9150509250929050565b60008115159050919050565b610cf981610ce4565b82525050565b6000602082019050610d146000830184610cf0565b92915050565b610d2381610c6e565b82525050565b6000602082019050610d3e6000830184610d1a565b92915050565b600080600060608486031215610d5d57610d5c610c0b565b5b6000610d6b86828701610c59565b9350506020610d7c86828701610c59565b9250506040610d8d86828701610c8f565b9150509250925092565b600060ff82169050919050565b610dad81610d97565b82525050565b6000602082019050610dc86000830184610da4565b92915050565b600060208284031215610de457610de3610c0b565b5b6000610df284828501610c59565b91505092915050565b60008060408385031215610e1257610e11610c0b565b5b6000610e2085828601610c59565b9250506020610e3185828601610c59565b9150509250929050565b7f4e487b7100000000000000000000000000000000000000000000000000000000600052602260045260246000fd5b60006002820490506001821680610e8257607f821691505b602082108103610e9557610e94610e3b565b5b50919050565b7f4e487b7100000000000000000000000000000000000000000000000000000000600052601160045260246000fd5b6000610ed582610c6e565b9150610ee083610c6e565b9250828203905081811115610ef857610ef7610e9b565b5b92915050565b6000610f0982610c6e565b9150610f1483610c6e565b9250828201905080821115610f2c57610f2b610e9b565b5b9291505056fea2646970667358221220779ae4f8a9c1361027e2dc59af4b2025e871f279f70e5a256d604b133c5646c464736f6c63430008110033",
  "linkReferences": {},
  "deployedLinkReferences": {}
}